{
  "_format": "hh3-artifact-1",
  "contractName": "StakeInNature",
  "sourceName": "contracts/StakeInNature.sol",
  "abi": [
    {
      "inputs": [
        {
          "internalType": "uint256",
          "name": "initialSupply",
          "type": "uint256"
        }
      ],
      "stateMutability": "nonpayable",
      "type": "constructor"
    },
    {
      "inputs": [
        {
          "internalType": "address",
          "name": "spender",
          "type": "address"
        },
        {
          "internalType": "uint256",
          "name": "allowance",
          "type": "uint256"
        },
        {
          "internalType": "uint256",
          "name": "needed",
          "type": "uint256"
        }
      ],
      "name": "ERC20InsufficientAllowance",
      "type": "error"
    },
    {
      "inputs": [
        {
          "internalType": "address",
          "name": "sender",
          "type": "address"
        },
        {
          "internalType": "uint256",
          "name": "balance",
          "type": "uint256"
        },
        {
          "internalType": "uint256",
          "name": "needed",
          "type": "uint256"
        }
      ],
      "name": "ERC20InsufficientBalance",
      "type": "error"
    },
    {
      "inputs": [
        {
          "internalType": "address",
          "name": "approver",
          "type": "address"
        }
      ],
      "name": "ERC20InvalidApprover",
      "type": "error"
    },
    {
      "inputs": [
        {
          "internalType": "address",
          "name": "receiver",
          "type": "address"
        }
      ],
      "name": "ERC20InvalidReceiver",
      "type": "error"
    },
    {
      "inputs": [
        {
          "internalType": "address",
          "name": "sender",
          "type": "address"
        }
      ],
      "name": "ERC20InvalidSender",
      "type": "error"
    },
    {
      "inputs": [
        {
          "internalType": "address",
          "name": "spender",
          "type": "address"
        }
      ],
      "name": "ERC20InvalidSpender",
      "type": "error"
    },
    {
      "inputs": [
        {
          "internalType": "address",
          "name": "owner",
          "type": "address"
        }
      ],
      "name": "OwnableInvalidOwner",
      "type": "error"
    },
    {
      "inputs": [
        {
          "internalType": "address",
          "name": "account",
          "type": "address"
        }
      ],
      "name": "OwnableUnauthorizedAccount",
      "type": "error"
    },
    {
      "anonymous": false,
      "inputs": [
        {
          "indexed": true,
          "internalType": "address",
          "name": "owner",
          "type": "address"
        },
        {
          "indexed": true,
          "internalType": "address",
          "name": "spender",
          "type": "address"
        },
        {
          "indexed": false,
          "internalType": "uint256",
          "name": "value",
          "type": "uint256"
        }
      ],
      "name": "Approval",
      "type": "event"
    },
    {
      "anonymous": false,
      "inputs": [
        {
          "indexed": true,
          "internalType": "address",
          "name": "previousOwner",
          "type": "address"
        },
        {
          "indexed": true,
          "internalType": "address",
          "name": "newOwner",
          "type": "address"
        }
      ],
      "name": "OwnershipTransferred",
      "type": "event"
    },
    {
      "anonymous": false,
      "inputs": [
        {
          "indexed": true,
          "internalType": "address",
          "name": "user",
          "type": "address"
        },
        {
          "indexed": false,
          "internalType": "uint256",
          "name": "amount",
          "type": "uint256"
        }
      ],
      "name": "Slashed",
      "type": "event"
    },
    {
      "anonymous": false,
      "inputs": [
        {
          "indexed": true,
          "internalType": "address",
          "name": "user",
          "type": "address"
        },
        {
          "indexed": false,
          "internalType": "uint256",
          "name": "amount",
          "type": "uint256"
        }
      ],
      "name": "Staked",
      "type": "event"
    },
    {
      "anonymous": false,
      "inputs": [
        {
          "indexed": true,
          "internalType": "address",
          "name": "from",
          "type": "address"
        },
        {
          "indexed": true,
          "internalType": "address",
          "name": "to",
          "type": "address"
        },
        {
          "indexed": false,
          "internalType": "uint256",
          "name": "value",
          "type": "uint256"
        }
      ],
      "name": "Transfer",
      "type": "event"
    },
    {
      "anonymous": false,
      "inputs": [
        {
          "indexed": true,
          "internalType": "address",
          "name": "user",
          "type": "address"
        },
        {
          "indexed": false,
          "internalType": "uint256",
          "name": "amount",
          "type": "uint256"
        }
      ],
      "name": "Unstaked",
      "type": "event"
    },
    {
      "anonymous": false,
      "inputs": [
        {
          "indexed": true,
          "internalType": "address",
          "name": "user",
          "type": "address"
        },
        {
          "indexed": false,
          "internalType": "uint256",
          "name": "reward",
          "type": "uint256"
        }
      ],
      "name": "UserValidated",
      "type": "event"
    },
    {
      "inputs": [],
      "name": "MINIMUM_STAKE",
      "outputs": [
        {
          "internalType": "uint256",
          "name": "",
          "type": "uint256"
        }
      ],
      "stateMutability": "view",
      "type": "function"
    },
    {
      "inputs": [],
      "name": "REWARD_PERCENTAGE",
      "outputs": [
        {
          "internalType": "uint256",
          "name": "",
          "type": "uint256"
        }
      ],
      "stateMutability": "view",
      "type": "function"
    },
    {
      "inputs": [
        {
          "internalType": "address",
          "name": "owner",
          "type": "address"
        },
        {
          "internalType": "address",
          "name": "spender",
          "type": "address"
        }
      ],
      "name": "allowance",
      "outputs": [
        {
          "internalType": "uint256",
          "name": "",
          "type": "uint256"
        }
      ],
      "stateMutability": "view",
      "type": "function"
    },
    {
      "inputs": [
        {
          "internalType": "address",
          "name": "spender",
          "type": "address"
        },
        {
          "internalType": "uint256",
          "name": "value",
          "type": "uint256"
        }
      ],
      "name": "approve",
      "outputs": [
        {
          "internalType": "bool",
          "name": "",
          "type": "bool"
        }
      ],
      "stateMutability": "nonpayable",
      "type": "function"
    },
    {
      "inputs": [
        {
          "internalType": "address",
          "name": "account",
          "type": "address"
        }
      ],
      "name": "balanceOf",
      "outputs": [
        {
          "internalType": "uint256",
          "name": "",
          "type": "uint256"
        }
      ],
      "stateMutability": "view",
      "type": "function"
    },
    {
      "inputs": [],
      "name": "decimals",
      "outputs": [
        {
          "internalType": "uint8",
          "name": "",
          "type": "uint8"
        }
      ],
      "stateMutability": "view",
      "type": "function"
    },
    {
      "inputs": [
        {
          "internalType": "address",
          "name": "user",
          "type": "address"
        }
      ],
      "name": "getStakedBalance",
      "outputs": [
        {
          "internalType": "uint256",
          "name": "",
          "type": "uint256"
        }
      ],
      "stateMutability": "view",
      "type": "function"
    },
    {
      "inputs": [
        {
          "internalType": "address",
          "name": "",
          "type": "address"
        }
      ],
      "name": "isValidated",
      "outputs": [
        {
          "internalType": "bool",
          "name": "",
          "type": "bool"
        }
      ],
      "stateMutability": "view",
      "type": "function"
    },
    {
      "inputs": [
        {
          "internalType": "address",
          "name": "to",
          "type": "address"
        },
        {
          "internalType": "uint256",
          "name": "amount",
          "type": "uint256"
        }
      ],
      "name": "mint",
      "outputs": [],
      "stateMutability": "nonpayable",
      "type": "function"
    },
    {
      "inputs": [],
      "name": "name",
      "outputs": [
        {
          "internalType": "string",
          "name": "",
          "type": "string"
        }
      ],
      "stateMutability": "view",
      "type": "function"
    },
    {
      "inputs": [],
      "name": "owner",
      "outputs": [
        {
          "internalType": "address",
          "name": "",
          "type": "address"
        }
      ],
      "stateMutability": "view",
      "type": "function"
    },
    {
      "inputs": [],
      "name": "renounceOwnership",
      "outputs": [],
      "stateMutability": "nonpayable",
      "type": "function"
    },
    {
      "inputs": [
        {
          "internalType": "address",
          "name": "user",
          "type": "address"
        }
      ],
      "name": "slashUser",
      "outputs": [],
      "stateMutability": "nonpayable",
      "type": "function"
    },
    {
      "inputs": [
        {
          "internalType": "uint256",
          "name": "amount",
          "type": "uint256"
        }
      ],
      "name": "stake",
      "outputs": [],
      "stateMutability": "nonpayable",
      "type": "function"
    },
    {
      "inputs": [
        {
          "internalType": "address",
          "name": "",
          "type": "address"
        }
      ],
      "name": "stakedBalance",
      "outputs": [
        {
          "internalType": "uint256",
          "name": "",
          "type": "uint256"
        }
      ],
      "stateMutability": "view",
      "type": "function"
    },
    {
      "inputs": [],
      "name": "symbol",
      "outputs": [
        {
          "internalType": "string",
          "name": "",
          "type": "string"
        }
      ],
      "stateMutability": "view",
      "type": "function"
    },
    {
      "inputs": [],
      "name": "totalSupply",
      "outputs": [
        {
          "internalType": "uint256",
          "name": "",
          "type": "uint256"
        }
      ],
      "stateMutability": "view",
      "type": "function"
    },
    {
      "inputs": [
        {
          "internalType": "address",
          "name": "to",
          "type": "address"
        },
        {
          "internalType": "uint256",
          "name": "value",
          "type": "uint256"
        }
      ],
      "name": "transfer",
      "outputs": [
        {
          "internalType": "bool",
          "name": "",
          "type": "bool"
        }
      ],
      "stateMutability": "nonpayable",
      "type": "function"
    },
    {
      "inputs": [
        {
          "internalType": "address",
          "name": "from",
          "type": "address"
        },
        {
          "internalType": "address",
          "name": "to",
          "type": "address"
        },
        {
          "internalType": "uint256",
          "name": "value",
          "type": "uint256"
        }
      ],
      "name": "transferFrom",
      "outputs": [
        {
          "internalType": "bool",
          "name": "",
          "type": "bool"
        }
      ],
      "stateMutability": "nonpayable",
      "type": "function"
    },
    {
      "inputs": [
        {
          "internalType": "address",
          "name": "newOwner",
          "type": "address"
        }
      ],
      "name": "transferOwnership",
      "outputs": [],
      "stateMutability": "nonpayable",
      "type": "function"
    },
    {
      "inputs": [
        {
          "internalType": "uint256",
          "name": "amount",
          "type": "uint256"
        }
      ],
      "name": "unstake",
      "outputs": [],
      "stateMutability": "nonpayable",
      "type": "function"
    },
    {
      "inputs": [],
      "name": "unstakeAll",
      "outputs": [],
      "stateMutability": "nonpayable",
      "type": "function"
    },
    {
      "inputs": [
        {
          "internalType": "address",
          "name": "user",
          "type": "address"
        }
      ],
      "name": "validateUser",
      "outputs": [],
      "stateMutability": "nonpayable",
      "type": "function"
    }
  ],
  "bytecode": "0x60806040523480156200001157600080fd5b5060405162001543380380620015438339810160408190526200003491620002ae565b336040518060400160405280600f81526020016e5374616b6520696e204e617475726560881b8152506040518060400160405280600381526020016229a4a760e91b81525081600390816200008a91906200036d565b5060046200009982826200036d565b5050506001600160a01b038116620000cc57604051631e4fbdf760e01b8152600060048201526024015b60405180910390fd5b620000d781620000eb565b50620000e433826200013d565b5062000461565b600580546001600160a01b038381166001600160a01b0319831681179093556040519116919082907f8be0079c531659141344cd1fd0a4f28419497f9722a3daafe3b4186f6b6457e090600090a35050565b6001600160a01b038216620001695760405163ec442f0560e01b815260006004820152602401620000c3565b62000177600083836200017b565b5050565b6001600160a01b038316620001aa5780600260008282546200019e919062000439565b909155506200021e9050565b6001600160a01b03831660009081526020819052604090205481811015620001ff5760405163391434e360e21b81526001600160a01b03851660048201526024810182905260448101839052606401620000c3565b6001600160a01b03841660009081526020819052604090209082900390555b6001600160a01b0382166200023c576002805482900390556200025b565b6001600160a01b03821660009081526020819052604090208054820190555b816001600160a01b0316836001600160a01b03167fddf252ad1be2c89b69c2b068fc378daa952ba7f163c4a11628f55a4df523b3ef83604051620002a191815260200190565b60405180910390a3505050565b600060208284031215620002c157600080fd5b5051919050565b634e487b7160e01b600052604160045260246000fd5b600181811c90821680620002f357607f821691505b6020821081036200031457634e487b7160e01b600052602260045260246000fd5b50919050565b601f8211156200036857600081815260208120601f850160051c81016020861015620003435750805b601f850160051c820191505b8181101562000364578281556001016200034f565b5050505b505050565b81516001600160401b03811115620003895762000389620002c8565b620003a1816200039a8454620002de565b846200031a565b602080601f831160018114620003d95760008415620003c05750858301515b600019600386901b1c1916600185901b17855562000364565b600085815260208120601f198616915b828110156200040a57888601518255948401946001909101908401620003e9565b5085821015620004295787850151600019600388901b60f8161c191681555b5050505050600190811b01905550565b808201808211156200045b57634e487b7160e01b600052601160045260246000fd5b92915050565b6110d280620004716000396000f3fe608060405234801561001057600080fd5b506004361061014d5760003560e01c806360217267116100c357806395d89b411161007c57806395d89b41146102e9578063a694fc3a146102f1578063a9059cbb14610304578063dd62ed3e14610317578063f2fde38b14610350578063fc72b1ed1461036357600080fd5b8063602172671461025757806370a0823114610277578063715018a6146102a05780638459254e146102a85780638c0a66e4146102bb5780638da5cb5b146102ce57600080fd5b806323b872dd1161011557806323b872dd146101dc5780632e17de78146101ef578063313ce5671461020457806335322f37146102135780633a02a42d1461021b57806340c10f191461024457600080fd5b806306fdde031461015257806308dbbb0314610170578063095ea7b31461018e5780630b91eaf9146101b157806318160ddd146101d4575b600080fd5b61015a61036b565b6040516101679190610eaf565b60405180910390f35b6101806830ca024f987b90000081565b604051908152602001610167565b6101a161019c366004610f19565b6103fd565b6040519015158152602001610167565b6101a16101bf366004610f43565b60076020526000908152604090205460ff1681565b600254610180565b6101a16101ea366004610f65565b610417565b6102026101fd366004610fa1565b61043b565b005b60405160128152602001610167565b6102026105a4565b610180610229366004610f43565b6001600160a01b031660009081526006602052604090205490565b610202610252366004610f19565b61067f565b610180610265366004610f43565b60066020526000908152604090205481565b610180610285366004610f43565b6001600160a01b031660009081526020819052604090205490565b610202610695565b6102026102b6366004610f43565b6106a9565b6102026102c9366004610f43565b610858565b6005546040516001600160a01b039091168152602001610167565b61015a610925565b6102026102ff366004610fa1565b610934565b6101a1610312366004610f19565b610a89565b610180610325366004610fba565b6001600160a01b03918216600090815260016020908152604080832093909416825291909152205490565b61020261035e366004610f43565b610a97565b610180600881565b60606003805461037a90610fed565b80601f01602080910402602001604051908101604052809291908181526020018280546103a690610fed565b80156103f35780601f106103c8576101008083540402835291602001916103f3565b820191906000526020600020905b8154815290600101906020018083116103d657829003601f168201915b5050505050905090565b60003361040b818585610ad5565b60019150505b92915050565b600033610425858285610ae7565b610430858585610b66565b506001949350505050565b3360009081526007602052604090205460ff166104985760405162461bcd60e51b8152602060048201526016602482015275155cd95c881b9bdd081d985b1a59185d1959081e595d60521b60448201526064015b60405180910390fd5b336000908152600660205260409020548111156104f75760405162461bcd60e51b815260206004820152601b60248201527f496e73756666696369656e74207374616b65642062616c616e63650000000000604482015260640161048f565b6000811161053c5760405162461bcd60e51b81526020600482015260126024820152710416d6f756e74206d757374206265203e20360741b604482015260640161048f565b336000908152600660205260408120805483929061055b90849061103d565b9091555061056b90503382610bc5565b60405181815233907f0f5bb82176feb1b5e747e28471aa92156a04d9f3ab9f45f28e2d704232b93f75906020015b60405180910390a250565b3360009081526007602052604090205460ff166105fc5760405162461bcd60e51b8152602060048201526016602482015275155cd95c881b9bdd081d985b1a59185d1959081e595d60521b604482015260640161048f565b3360009081526006602052604090205461064c5760405162461bcd60e51b81526020600482015260116024820152704e6f207374616b65642062616c616e636560781b604482015260640161048f565b3360008181526006602090815260408083208054908490556007909252909120805460ff191690559061056b9082610bc5565b610687610bfb565b6106918282610bc5565b5050565b61069d610bfb565b6106a76000610c28565b565b6106b1610bfb565b6001600160a01b03811660009081526007602052604090205460ff16156107135760405162461bcd60e51b8152602060048201526016602482015275155cd95c88185b1c9958591e481d985b1a59185d195960521b604482015260640161048f565b6001600160a01b0381166000908152600660205260409020546830ca024f987b90000011156107935760405162461bcd60e51b815260206004820152602660248201527f55736572206d7573742068617665206174206c65617374203930302053494e206044820152651cdd185ad95960d21b606482015260840161048f565b6001600160a01b0381166000908152600660205260408120546064906107bb90600890611050565b6107c59190611067565b6001600160a01b0383166000908152600660205260408120805492935083929091906107f2908490611089565b90915550506001600160a01b03821660008181526007602052604090819020805460ff19166001179055517f2b7ab90390ccd68dedb39c501233dc0e197dea7e52e099b11f39368080d9a8999061084c9084815260200190565b60405180910390a25050565b610860610bfb565b6001600160a01b0381166000908152600660205260409020546108c55760405162461bcd60e51b815260206004820152601a60248201527f4e6f207374616b65642062616c616e636520746f20736c617368000000000000604482015260640161048f565b6001600160a01b03811660008181526006602090815260408083208054908490556007835292819020805460ff19169055518281529192917f4ed05e9673c26d2ed44f7ef6a7f2942df0ee3b5e1e17db4b99f9dcd261a339cd910161084c565b60606004805461037a90610fed565b6830ca024f987b90000081101561098d5760405162461bcd60e51b815260206004820152601860248201527f4d696e696d756d207374616b65206973203930302053494e0000000000000000604482015260640161048f565b336000908152602081905260409020548111156109e35760405162461bcd60e51b8152602060048201526014602482015273496e73756666696369656e742062616c616e636560601b604482015260640161048f565b60008111610a285760405162461bcd60e51b81526020600482015260126024820152710416d6f756e74206d757374206265203e20360741b604482015260640161048f565b3360009081526006602052604081208054839290610a47908490611089565b90915550610a5790503382610c7a565b60405181815233907f9e71bc8eea02a63969f509818f2dafb9254532904319f9dbda79b67bd34a5f3d90602001610599565b60003361040b818585610b66565b610a9f610bfb565b6001600160a01b038116610ac957604051631e4fbdf760e01b81526000600482015260240161048f565b610ad281610c28565b50565b610ae28383836001610cb0565b505050565b6001600160a01b03838116600090815260016020908152604080832093861683529290522054600019811015610b605781811015610b5157604051637dc7a0d960e11b81526001600160a01b0384166004820152602481018290526044810183905260640161048f565b610b6084848484036000610cb0565b50505050565b6001600160a01b038316610b9057604051634b637e8f60e11b81526000600482015260240161048f565b6001600160a01b038216610bba5760405163ec442f0560e01b81526000600482015260240161048f565b610ae2838383610d85565b6001600160a01b038216610bef5760405163ec442f0560e01b81526000600482015260240161048f565b61069160008383610d85565b6005546001600160a01b031633146106a75760405163118cdaa760e01b815233600482015260240161048f565b600580546001600160a01b038381166001600160a01b0319831681179093556040519116919082907f8be0079c531659141344cd1fd0a4f28419497f9722a3daafe3b4186f6b6457e090600090a35050565b6001600160a01b038216610ca457604051634b637e8f60e11b81526000600482015260240161048f565b61069182600083610d85565b6001600160a01b038416610cda5760405163e602df0560e01b81526000600482015260240161048f565b6001600160a01b038316610d0457604051634a1406b160e11b81526000600482015260240161048f565b6001600160a01b0380851660009081526001602090815260408083209387168352929052208290558015610b6057826001600160a01b0316846001600160a01b03167f8c5be1e5ebec7d5bd14f71427d1e84f3dd0314c0f7b2291e5b200ac8c7c3b92584604051610d7791815260200190565b60405180910390a350505050565b6001600160a01b038316610db0578060026000828254610da59190611089565b90915550610e229050565b6001600160a01b03831660009081526020819052604090205481811015610e035760405163391434e360e21b81526001600160a01b0385166004820152602481018290526044810183905260640161048f565b6001600160a01b03841660009081526020819052604090209082900390555b6001600160a01b038216610e3e57600280548290039055610e5d565b6001600160a01b03821660009081526020819052604090208054820190555b816001600160a01b0316836001600160a01b03167fddf252ad1be2c89b69c2b068fc378daa952ba7f163c4a11628f55a4df523b3ef83604051610ea291815260200190565b60405180910390a3505050565b600060208083528351808285015260005b81811015610edc57858101830151858201604001528201610ec0565b506000604082860101526040601f19601f8301168501019250505092915050565b80356001600160a01b0381168114610f1457600080fd5b919050565b60008060408385031215610f2c57600080fd5b610f3583610efd565b946020939093013593505050565b600060208284031215610f5557600080fd5b610f5e82610efd565b9392505050565b600080600060608486031215610f7a57600080fd5b610f8384610efd565b9250610f9160208501610efd565b9150604084013590509250925092565b600060208284031215610fb357600080fd5b5035919050565b60008060408385031215610fcd57600080fd5b610fd683610efd565b9150610fe460208401610efd565b90509250929050565b600181811c9082168061100157607f821691505b60208210810361102157634e487b7160e01b600052602260045260246000fd5b50919050565b634e487b7160e01b600052601160045260246000fd5b8181038181111561041157610411611027565b808202811582820484141761041157610411611027565b60008261108457634e487b7160e01b600052601260045260246000fd5b500490565b808201808211156104115761041161102756fea2646970667358221220803c5fa8b1d7da9768cc267a6da0a87c6601883ada524d4a44c21f40441f569b64736f6c63430008140033",
  "linkReferences": {},
  "deployedLinkReferences": {},
  "immutableReferences": {},
  "inputSourceName": "project/contracts/StakeInNature.sol",
  "buildInfoId": "solc-0_8_20-b46acc8538d18b2587416ad55c29db54dfc91154"
}